:020000040800F2
:1000000000200020CD300008290900082B09000835
:1000100000000000000000000000000000000000E0
:100020000000000000000000000000002D09000892
:1000300000000000000000002F090008310900083E
:100040001D310008000000001D3100081D310008AE
:100050001D3100081D3100081D3100081D31000848
:1000600000000000390900081D3100081D3100089A
:100070004909000859090008690900080000000042
:10008000790900081D310008000000001D3100083A
:100090001D3100081D3100081D31000889090008C4
:1000A000AD0900081D3100081D3100081D31000890
:1000B0001D310008000000000000000000000000EA
:1000C0000448054B10B5834203D0044B002B00D0ED
:1000D000984710BD5C0000205C000020000000007C
:1000E00006480749091A8B10C90FC91810B54910DD
:1000F00003D0044B002B00D0984710BD5C000020BB
:100100005C0000200000000010B5074C2378002B95
:1001100009D1FFF7D5FF054B002B02D0044800E0C2
:1001200000BF0123237010BD5C0000200000000010
:10013000683A0008054B10B5002B03D00449054868
:1001400000E000BFFFF7CCFF10BDC046000000007C
:1001500060000020683A00080023C25C0133002AD6
:10016000FBD1581E7047000003B471464908400097
:100170004900095E49008E4403BC704700224308D1
:100180008B4274D303098B425FD3030A8B4244D35F
:10019000030B8B4228D3030C8B420DD3FF220902A1
:1001A00012BA030C8B4202D31212090265D0030B60
:1001B0008B4219D300E0090AC30B8B4201D3CB0356
:1001C000C01A5241830B8B4201D38B03C01A524198
:1001D000430B8B4201D34B03C01A5241030B8B429A
:1001E00001D30B03C01A5241C30A8B4201D3CB0285
:1001F000C01A5241830A8B4201D38B02C01A52416A
:10020000430A8B4201D34B02C01A5241030A8B426C
:1002100001D30B02C01A5241CDD2C3098B4201D384
:10022000CB01C01A524183098B4201D38B01C01A02
:10023000524143098B4201D34B01C01A5241030979
:100240008B4201D30B01C01A5241C3088B4201D328
:10025000CB00C01A524183088B4201D38B00C01AD5
:10026000524143088B4201D34B00C01A5241411AFC
:1002700000D20146524110467047FFE701B5002009
:1002800000F006F802BDC0460029F7D076E77047B7
:100290007047C046F0B5CE46474680B58BB01422B5
:1002A000002105A802F05EFF544B5A6980218902A3
:1002B0000A435A615A690A400092009A5A69802199
:1002C000C9020A435A615A690A400192019A5A695D
:1002D000802109030A435A615A690A400292029A2C
:1002E0005A69802149030A435A615A690A400392B4
:1002F000039A5A698021C9030A435A615B690B401A
:100300000493049B3E4E00220321300002F0AFFA1A
:10031000E2231B0199469023DB05984600224946BB
:10032000180002F0A4FAE0235B000593B03BFF3B0A
:10033000069300240794089405A9300002F0CCF934
:1003400080239B01059384239B030693079405A9AF
:10035000300002F0C1F9032505950127069707949F
:10036000089405A9300002F0B7F9264B05930695CD
:10037000079405A9300002F0AFF9F0230593069524
:10038000079405A9204802F0A7F990231B020593C2
:100390000695079405A9404602F09EF94B46059341
:1003A00006970794089405A9404602F095F9E823BA
:1003B0005B0005930694079705A9404602F08CF967
:1003C000124B059306950794114E05A9300002F0D3
:1003D00083F9062305930694079705A9300002F0D8
:1003E0007BF9042305930695079405A9094802F0B3
:1003F00073F90BB0C0BCB946B046F0BD0010024066
:10040000000800483C1E00000014004839F30000BA
:1004100000040048000C004800B583B0094A516947
:10042000012319435161526913400193019B00223A
:100430000721092002F07EFB092002F07FFB03B0B8
:1004400000BDC0460010024010B54021014802F036
:1004500014FA10BD0008004810B50268034B9A4218
:1004600000D010BDFFF7F0FFFBE7C046002C0140B5
:1004700072B6FEE710B50B480B4B036096231B02C8
:10048000436000238360C36003610C224261836187
:10049000C3610362436201F0B1F8002800D110BDCE
:1004A000FFF7E6FF780000200044004000B585B06B
:1004B0000C22002101A802F055FE1B481B4B0360D3
:1004C000002343608360C36001220261082141610F
:1004D000037643768276C376C221FF31C16103621F
:1004E0002433C254826202F093FB002816D1002309
:1004F000019380235B010293062303930A4801A919
:1005000002F052FD00280BD101230193064801A9F6
:1005100002F04AFD002805D105B000BDFFF7A8FF95
:10052000FFF7A6FFFFF7A4FF7C0200200024014094
:1005300010B51248124B0360124B436000238360D6
:100540000122C260036143618361C361036201F000
:10055000E5FC00280CD10948002102F067F80028CA
:1005600008D10648002102F08DF8002804D110BD02
:10057000FFF77EFFFFF77CFFFFF77AFFE401002023
:10058000005400401A09102010B51248124B0360A5
:10059000124B4360002383600122C2600361436108
:1005A0008361C361036201F0B9FC00280CD10948E2
:1005B000002102F03BF8002808D10648002102F093
:1005C00061F8002804D110BDFFF752FFFFF750FF7C
:1005D000FFF74EFF90010020005800401A0910203C
:1005E00000B587B01022002102A802F0BBFD08224E
:1005F0000021684602F0B6FD1448154B036008233D
:10060000436000238360134AC260036143618361D6
:1006100000F080FC002813D180235B0102930B487B
:1006200002A900F0AFFC00280CD100230093019335
:100630000648694600F02AFD002805D107B000BD34
:10064000FFF716FFFFF714FFFFF712FF4801002026
:10065000002C01401027000010B594B0302200217A
:1006600008A802F07FFD10241022002104A802F047
:1006700079FD10220021684602F074FD12230893D0
:10068000113B0B930D930C940E9401331093A02304
:100690009B03129308A800F0E7FF002817D1072357
:1006A0000493053B0593002306930793012104A8B7
:1006B00001F052FA00280CD120230093103B039341
:1006C000684601F0F9FA002805D114B010BDFFF713
:1006D000CFFEFFF7CDFEFFF7CBFE0000F0B5DE4604
:1006E00057464646C0B5CCB001F09EFBFFF7B4FFBD
:1006F000FFF7D0FDFFF790FEFFF7BCFEFFF7D6FE39
:10070000FFF716FFFFF740FFFFF76AFF00F0DCF886
:10071000634800F0D1FA634C00224021200002F02F
:10072000A6F801228021200002F0A1F880210122F8
:100730004900200002F09BF800264CE0002000F069
:10074000D9F80790012000F0D5F8012F04D04346D6
:10075000002B03D1013371E000236FE002236DE031
:100760000136F6B2012E71D0022E30D14E4903006F
:10077000079A08A802F0D4FC08A8FFF7EDFCFA23BA
:1007800082B24A489B0008A900F057FE1FE05A4673
:10079000002A03D0002E57D0013EF6B2002EE1D140
:1007A00043495A46049203950293019743460093A6
:1007B0002300069A2CA802F0B3FC2CA8FFF7CCFC6F
:1007C000FA2382B239489B002CA900F036FEFA20A9
:1007D000400001F04BFB9023DB059A4610211800E6
:1007E00002F03EF806908021504602F039F80124CC
:1007F000201AC3B2984680214900504602F030F8D2
:10080000271AFFB22B4B9B460221180002F028F852
:10081000251AEDB20421584602F022F8241AE3B258
:100820009B464021504602F01BF80400012885D168
:100830000700214880231B0107930323002DA6D026
:10084000012E8DD90026ABE702268BE7022B12D0B2
:10085000002B1AD128AA194B31CB31C21B68136067
:1008600028A8FFF779FCFA2382B210489B0028A938
:1008700000F0E3FDABE728AA114B31CB31C21100E8
:100880001A880A809B788B70EAE728AA0D4B31CB37
:1008900031C211001A880A809B788B70E0E7C0464D
:1008A0004801002000080048F43A000878000020C1
:1008B000803A000800040048FF0F0000D43A000806
:1008C000C43A0008E43A000810B5002205E0074BDE
:1008D00051005B18002199800132012AF7DD03499C
:1008E0000348022202F056FA10BDC046BC020020A6
:1008F0007C020020012804D8034B40001B18988874
:1009000070470020FCE7C046BC020020002205E042
:10091000044B5100C85A5B1898800132012AF7DD58
:100920007047C046BC020020FEE7FEE770477047F4
:1009300010B501F089FA10BD10B5024802F054F864
:1009400010BDC0463802002010B5024802F0C4FABB
:1009500010BDC0467C02002010B5024800F0E2F94C
:1009600010BDC0464801002010B5024800F0DAF979
:1009700010BDC0464801002010B5024800F0D2F971
:1009800010BDC0460001002010B5074B1B689A69D6
:10099000E023DB001A4203D0034801F009FE10BD3A
:1009A000014801F021FBFAE7E401002010B5074BF4
:1009B0001B689A69E023DB001A4203D0034801F068
:1009C000F7FD10BD014801F00FFBFAE79001002090
:1009D00082B00A4B996901221143996199690A40D1
:1009E0000092009ADA69802149050A43DA61DB69DD
:1009F0000B400193019B02B07047C04600100240BB
:100A000010B588B004001422002103A802F0AAFB4C
:100A10002268224B9A4201D008B010BD204B9A693F
:100A2000802189000A439A619A690A400192019AD9
:100A30005A69802189020A435A615B690B4002931B
:100A4000029B032303930493902003A9C00501F0A4
:100A500043FE1448144B03600023436083608033DB
:100A6000C360803303618023DB0043612023836103
:100A700080235B01C36101F02FFF00280BD1094BDC
:100A800023635C62002207210C2002F053F80C2043
:100A900002F054F8C0E7FFF7EBFCF0E70024014058
:100AA00000100240380200200800024010B58AB051
:100AB00004001422002105A802F054FB23682C4AEC
:100AC000934204D02B4A934229D00AB010BD2A4C3D
:100AD00063698022D2021343636163691340019307
:100AE000019BC0230593AE3B06930F3B0893023B4B
:100AF000099305A9214801F0EFFDE36980229203E3
:100B00001343E361E36913400293029B0022002137
:100B1000172002F00FF8172002F010F8D5E7164C56
:100B200063698022D20213436361636913400393B4
:100B3000039BC0231B010593122306930F3B0893CD
:100B4000023B099305A90D4801F0C6FDE369802227
:100B5000D2031343E361E36913400493049B00222F
:100B60000021182001F0E6FF182001F0E7FFACE7B4
:100B700000540040005800400010024000040048AB
:100B800000B583B003681A4A934204D0194A9342CD
:100B90001CD003B000BD184B9A69802109010A439B
:100BA0009A619B690B400093009B002206210D2057
:100BB00001F0C0FF0D2001F0C1FF002206210E2030
:100BC00001F0B8FF0E2001F0B9FFE2E70A4AD1694F
:100BD00002231943D161D26913400193019B002282
:100BE0000021102001F0A6FF102001F0A7FFD0E7A0
:100BF000002C0140000400400010024010B588B0F5
:100C000004001422002103A802F0ACFA2268114B60
:100C10009A4201D008B010BD0F4BD96980229202D0
:100C20001143D961D9691140019101995969114361
:100C300059615B6913400293029B0C2303930A3BA7
:100C40000493013B0793902003A9C00501F044FDE4
:100C5000E0E7C046004400400010024030B5036A9F
:100C6000046A0125AC4304628469EF35AC43120188
:100C700022430A24A3430B438261036230BD000078
:100C800030B5036A1024A34303628469036A054DE7
:100C90002C4012032243A024A3430901194382617B
:100CA000016230BDFF0FFFFF8368702293430B4347
:100CB000693A1343836070473D23C35C012B22D103
:100CC0003C330222C2540268D36801210B43D36033
:100CD00003680F4A93420BD00E4A934208D00E4A43
:100CE000934205D01A6801210A431A6000200BE0E4
:100CF000996807220A40062A07D01A6801210A4388
:100D00001A60002000E0012070470020FCE7C04688
:100D1000002C014000040040004001407047704733
:100D20007047704710B50400026813699B070FD520
:100D3000D3689B070CD503235B421361043303770D
:100D400003689B699B0763D0FFF7E9FF00232377C4
:100D5000226813695B0712D5D3685B070FD505239B
:100D60005B4213610733237723689A69C0239B0092
:100D70001A4253D02000FFF7D2FF002323772268C6
:100D800013691B0710D5D3681B070DD509235B42D8
:100D900013610D3323772368DB699B0745D020005F
:100DA000FFF7BDFF0023237722681369DB0612D506
:100DB000D368DB060FD511235B4213611933237708
:100DC0002368DA69C0239B001A4235D02000FFF760
:100DD000A6FF0023237722681369DB0702D5D368B7
:100DE000DB0730D4226813691B0602D5D3681B06C3
:100DF00030D4226813695B0602D5D3685B0630D411
:100E0000226813699B0602D5D3689B0630D410BDB7
:100E1000FFF784FF2000FFF783FF97E72000FFF72D
:100E20007DFF2000FFF77CFFA7E72000FFF776FF9C
:100E30002000FFF775FFB5E72000FFF76FFF2000E8
:100E4000FFF76EFFC5E702235B4213612000FFF747
:100E500003FBC7E781235B421361200000F049F9DF
:100E6000C7E741235B4213612000FFF75AFFC7E742
:100E700021235B421361200000F03AF9C7E700002C
:100E800003681D4A904202D01C4A904203D170224E
:100E900093434A681343184A90420ED0174A90422F
:100EA0000BD0174A904208D0164A904205D0164AF5
:100EB000904202D0154A904203D1154A1A40CB689D
:100EC0001343802293434A69134303608B68C362D0
:100ED0000B688362084B984208D00A4B984205D0B1
:100EE000094B984202D0094B984201D10B69036328
:100EF000012343617047C046002C014000040040BC
:100F000000200040004001400044014000480140F2
:100F1000FFFCFFFF70B5041E26D03D23C35C002BF1
:100F20001CD03D2502236355210001C9FFF7A8FF0E
:100F300001234622A354083AA3540132A354013298
:100F4000A3540132A3540132A3540132A3540132F9
:100F5000A3540132A3546355002070BD3C330022DA
:100F6000C254FFF70DFEDCE70120F6E730B58468D8
:100F7000034D2C401B0213430B432343836030BDBE
:100F8000FF00FFFF10B504000B003C22825C012A29
:100F900000D177E03C22012181540132013181549A
:100FA00001688A68384802408A60196860294FD011
:100FB00023D8402957D011D8202904D00AD8002995
:100FC00001D0102904D12068FFF76EFE00202AE02E
:100FD000012028E03029F6D0012024E050290AD150
:100FE0005968DA682068FFF739FE20685021FFF75A
:100FF0005BFE002017E0012015E0802252019142A3
:101000003CD080229201914214D0702938D1996845
:101010005A68DB682068FFF7A9FF22689368772188
:101020000B43936000203D230122E254013B002248
:10103000E25410BD99685A68DB682068FFF796FF94
:10104000226891688023DB010B4393600020EAE76C
:101050005968DA682068FFF713FE20686021FFF7FF
:1010600023FE0020DFE75968DA682068FFF7F6FD05
:1010700020684021FFF718FE0020D4E70020D2E7C7
:101080000120D0E70220D4E78800FFFF30B53C23E1
:10109000C35C012B24D03C230122C2540133013212
:1010A000C25403685C689D686E3294430A682243A8
:1010B0005A6003680B4A934205D00B4A934202D010
:1010C0000A4A934204D1802295434A682A439A608F
:1010D0003D230122C254013B0022C254002030BDF6
:1010E0000220FCE7002C01400004004000400140C9
:1010F0007047704710B5EFF3108C012282F310880F
:1011000001680B68124C23400B608CF31088EFF3DE
:10111000108C82F3108801688B6893438B608CF38A
:101120001088036E012B06D080232022C25000239A
:101130000366836610BDEFF3108183F310880268A5
:1011400013683234FF34A343136081F31088EBE754
:10115000DFFEFFFF10B50400836802691343426994
:101160001343C269134301680A684E48024013439F
:101170000B60226853684C490B40E1680B43536095
:10118000A369226A1A4321688B68484803401343C5
:101190008B602368464A934211D0464A93421FD03F
:1011A0001023E06980221202904223D0042B6AD0DF
:1011B0004ED8002B53D0022B48D13F4853E03F4B31
:1011C0001A6B03231340022B0CD005D8002B0BD035
:1011D000012B0BD10333E4E7032B09D1013BE0E7FB
:1011E0000023DEE70823DCE70023DAE71023D8E753
:1011F0001023D6E7042B26D007D8002B09D0022BCA
:1012000001D12D4809E0012047E0082B05D001203D
:1012100043E000F041FD002838D0400061684B08F1
:10122000C018FEF7ABFF0200103A254B9A422FD8A8
:1012300082B20F239A434008083B034013432268BD
:10124000D360002029E000F05DFCE4E7012024E009
:10125000082B02D18020000205E001201DE000F0F3
:101260001BFD002816D061684B081818FEF786FF92
:101270000200103A124B9A420ED823680004000C68
:10128000D860002009E000F03DFCEAE7002004E01F
:10129000012002E0002000E001200023A366E366B5
:1012A00010BDC046F369FFFFFFCFFFFFFFF4FFFF54
:1012B000003801400044004000127A000010024053
:1012C000EFFF0000436ADB0706D5026853682C492C
:1012D0000B40816A0B435360436A9B0706D5026843
:1012E000536828490B40C16A0B435360436A5B074C
:1012F00006D50268536824490B40016B0B435360C9
:10130000436A1B0706D50268536820490B40416BAE
:101310000B435360436ADB0606D5026893681C4999
:101320000B40816B0B439360436A9B0606D50268B2
:10133000936818490B40C16B0B439360436A5B068B
:101340000BD50268536814490B40016C0B43536082
:10135000026C80235B039A420AD0436A1B0606D5BF
:10136000026853680D490B40816C0B435360704712
:10137000026853680A490B40416C0B435360ECE729
:10138000FFFFFDFFFFFFFEFFFFFFFBFFFF7FFFFFF4
:10139000FFEFFFFFFFDFFFFFFFFFEFFFFFFFF7FFA5
:1013A000FFFF9FFFF8B5CE46474680B506000D000B
:1013B00017009946089B98463368DC692C40641BEB
:1013C00063425C41BC422FD143460133F4D000F06C
:1013D00047FD4B46C01A40452BD84346002B2AD028
:1013E00033681A685207E7D5DA69120710D4DA6948
:1013F0001205E1D5802212011A623000FFF77AFE51
:1014000084232022F2500C3B0022F25403200CE0F3
:1014100008241C623000FFF76DFE8423F4500C3B5F
:101420000022F254012000E00020C0BCB946B046C2
:10143000F8BD0320F9E70320F7E7F0B5C64600B58D
:1014400082B004000D0090461E00C36F202B62D1B5
:10145000002965D0002A65D0826880235B019A420A
:1014600004D10369002B01D1CB075DD48423002272
:10147000E250633BE36700F0F3FC07005023424671
:10148000E2520233E252A26880235B019A4202D008
:10149000002398461AE02369002B02D000239846C7
:1014A00014E0A846002511E02023E367032033E081
:1014B00043461B882268DB05DB0D138502239C460F
:1014C000E0445223E25A013A92B2E2525223E35AE2
:1014D0009BB2002B0FD000963B0000228021200001
:1014E000FFF760FF0028DFD1002DE1D02A782368C4
:1014F0001A850135E5E700963B00002240212000D7
:10150000FFF750FF002802D12023E36704E02023E7
:10151000E367032000E0022002B080BCB846F0BDC3
:101520000120F9E70120F7E70120F5E730B583B0A6
:10153000040084230022C25000F092FC05002368BE
:101540001B681B070FD423681B685B0729D4202363
:10155000E3678022A350002323666366083AA354FE
:10156000002003B030BD8021224B009303000022F5
:1015700089032000FFF716FF0028E4D0EFF3108165
:10158000012383F31088226813688020834313604B
:1015900081F310882023E36758330022E2547D381A
:1015A000DFE78021134B00932B000022C9032000AA
:1015B000FFF7F8FE0028CAD0EFF31080012282F373
:1015C000108821680B680C4D2B400B6080F310884D
:1015D000EFF3108082F3108821688B6893438B604F
:1015E00080F3108880231F32E250083B0022E2542F
:1015F0000320B6E7FFFFFF01DFFEFFFF10B5041E6B
:101600002ED0C36F002B21D02423E36722681368F8
:1016100001218B4313602000FFF79CFD012814D0AB
:10162000636A002B18D1226853680E490B4053603F
:101630002268936808218B439360226813680739F6
:101640000B4313602000FFF771FF10BD78330022B9
:10165000C254FFF7D3FAD7E72000FFF733FEE2E7E3
:101660000120F2E7FFF7FFFF70B582B0041E00D142
:101670002EE20368DB0726D5AE4B5A680C231340D5
:10168000042B18D0AB4B5A680C231340082B0ED0F8
:101690006368012B3CD0002B51D1A64B1A68A64998
:1016A0000A401A601A68A5490A401A6036E0A14B40
:1016B0005B68DB03ECD59F4B1B689B0303D563681A
:1016C000002B00D107E223689B0772D5994B5B681A
:1016D0000C221A425DD0974B5A680C231340082BFA
:1016E00053D0E368002B00D185E0924A13680121B2
:1016F0000B43136000F0B4FB05008E4B1B689B0787
:1017000070D400F0ADFB401B0228F6D90320E0E1C5
:10171000884A116880235B020B4313606368002BC7
:1017200025D000F09DFB0500824B1B689B03CAD4AB
:1017300000F096FB401B6428F6D90320C9E1052B75
:1017400009D07C4B1A687C490A401A601A687B49A8
:101750000A401A60E2E7774B19688022D2020A43F6
:101760001A601968802252020A431A60D6E700F014
:1017700077FB05006F4B1B689B03A4D500F070FB43
:10178000401B6428F6D90320A3E16A4B5B68DB03A6
:10179000A7D4684B1B689B0703D5E368012B00D0D7
:1017A0009BE164490B68F82293432269D2001343FA
:1017B0000B6023681B0744D5E369002B2ED05D4ADC
:1017C000536A01210B43536200F04AFB0500594B59
:1017D0005B6A9B0735D400F043FB401B0228F6D917
:1017E000032076E153490B68F82293432269D20023
:1017F00013430B60DDE74F4A136801218B431360ED
:1018000000F02EFB05004B4B1B689B07D1D500F069
:1018100027FB401B0228F6D903205AE1454A536AA8
:1018200001218B43536200F01BFB0500414B5B6AB7
:101830009B0706D500F014FB401B0228F6D90320B5
:1018400047E123685B0700D480E03A4BDB69DB00AB
:101850001DD4384BDA69802149050A43DA61DB6916
:101860000B400193019B0125354B1B68DB0510D50F
:10187000A368012B21D0002B36D12E4B1A6A0121EF
:101880008A431A621A6A03318A431A621AE00025EF
:10189000EAE72B4A116880235B000B43136000F0DA
:1018A000DFFA0600264B1B68DB05E1D400F0D8FA0E
:1018B000801B6428F6D903200BE11E4A136A01211C
:1018C0000B431362A368002B24D000F0C9FA060072
:1018D000184B1B6A9B0737D400F0C2FA801B194BC8
:1018E0009842F5D90320F4E0052B09D0114B1A6A70
:1018F00001218A431A621A6A03318A431A62E1E7B4
:101900000C4B1A6A04210A431A621A6A03390A4301
:101910001A62D7E700F0A4FA0600064B1B6A9B0781
:1019200012D500F09DFA801B064B9842F5D9032092
:10193000CFE0C04600100240FFFFFEFFFFFFFBFFAD
:101940000070004088130000012D33D02368DB06AF
:1019500010D56369012B33D0053351D1654A536BE0
:1019600004218B435363536BF4318B43A169C9004A
:101970000B435363236A002B00D1B0E05D4A5168EA
:101980000C220A40082A00D18AE0022B4FD0594A83
:10199000136859490B40136000F062FA0400554B7C
:1019A0001B689B017AD500F05BFA001B0228F6D970
:1019B00003208EE04F4AD36950490B40D361C5E7FD
:1019C0004C4B5A6B04210A435A635A6B03390A433E
:1019D0005A6300F045FA0500464B5B6B9B0706D443
:1019E00000F03EFA401B0228F6D9032071E041497D
:1019F0004B6BF8229343A269D20013434B63B9E7C0
:101A00003C4B5A6B04210A435A635A6B03398A438D
:101A10005A6300F025FA0500364B5B6B9B07A9D58E
:101A200000F01EFA401B0228F6D9032051E0314A8B
:101A3000136831490B40136000F012FA05002D4B7A
:101A40001B689B0106D500F00BFA401B0228F6D953
:101A500003203EE0274BDA6A0F218A43E16A0A43FA
:101A6000DA625A6826490A40A16A606A01430A4359
:101A70005A601968802252040A431A6000F0F0F993
:101A800004001C4B1B689B0106D400F0E9F9001B05
:101A90000228F6D903201CE000201AE0002018E0FC
:101AA000012B1ED0134B5A68D86A80235B02134067
:101AB000616A8B4217D10F230340E16A8B4214D134
:101AC000F0239B031A40A36A9A4210D1002000E041
:101AD000012002B070BD0120FBE70120F9E70020E2
:101AE000F7E70120F5E70120F3E70120F1E7012006
:101AF000EFE7C04600100240FFFFFFFEFFFFFFEFD1
:101B0000FFFFC2FF10B5104B5A680C231340082B7F
:101B100001D00E4810BD910C073319400C48445CAD
:101B20000949C96A0B400B49C95CD20304D507486F
:101B3000FEF724FB6043EDE76201121B93019B1A41
:101B4000DB001B191802E5E70010024000127A00C2
:101B5000283B0008183B000870B504000D00002861
:101B600000D17EE0434B1A68012313408B420AD216
:101B700040490B68012293432B430B600B681A40CA
:101B8000AA4200D06FE023689A070ED55B0705D5FF
:101B9000394A5168E023DB000B435360364A5368EF
:101BA000F0218B43A1680B4353602368DB072DD5DD
:101BB0006368012B1ED0022B22D02F4A1268920795
:101BC00053D52D494A680320824313434B6000F0EC
:101BD00047F90600284B5B680C221A4063689B009B
:101BE0009A4213D000F03CF9801B244B9842F1D963
:101BF000032035E0204A12689203E2D401202FE04E
:101C00001D4A12689201DCD4012029E0194B1A68A0
:101C100001231340AB4209D916490B6801229343B3
:101C20002B430B600B681A40AA4220D123685B0744
:101C300006D5114A536812490B40E1680B435360C3
:101C4000FFF760FF0C4B5A6812090F2313400D4A2F
:101C5000D35CD8400C4B1860002000F0BDF8002089
:101C600070BD0120FCE70120FAE70120F8E7012020
:101C7000F6E7C04600200240001002408813000032
:101C8000FFF8FFFF403B000808000020014B1868E8
:101C90007047C0460800002010B5FFF7F7FF044B5F
:101CA0005A68120A07231340024AD35CD84010BD79
:101CB00000100240383B000870B582B00400036891
:101CC000DB0339D53E4BDB69DB004BD43C4BDA6997
:101CD000802149050A43DA61DB690B400193019BCE
:101CE0000125384B1B68DB053ED5354B1A6AC023EE
:101CF0009B00110019401A4215D06368C02292005F
:101D000013408B420FD02E4B1A6A2F4911401E6A86
:101D10008020400230431862186A2C4E304018620E
:101D20001962D20734D4264A136A27490B406168E6
:101D30000B431362012D3AD02368DB0706D5204AF6
:101D4000136B03218B43A1680B43136323689B062A
:101D500032D51B4A136B10218B43E1680B4313638D
:101D600000202AE00025BCE7164A116880235B00AA
:101D70000B43136000F074F80600124B1B68DB0580
:101D8000B3D400F06DF8801B6428F6D9032014E06A
:101D900000F066F806000A4B1B6A9B07C3D400F0EC
:101DA0005FF8801B0A4B9842F5D9032005E0D36900
:101DB00008490B40D361BFE7002002B070BDC046A8
:101DC0000010024000700040FFFCFFFFFFFFFEFF1D
:101DD00088130000FFFFFFEF10B504000F4B1978C8
:101DE000FA208000FEF7CAF901000D4B1868FEF7D3
:101DF000C5F900F0AFFE00280DD1032C01D9012058
:101E00000AE0013000222100404200F093FE054B21
:101E10001C60002000E0012010BDC0460000002032
:101E2000080000200400002010B5064A13681021A5
:101E30000B4313600020FFF7CFFFFEF7C9FD002022
:101E400010BDC04600200240034A1168034B1B78B6
:101E50005B1813607047C046C402002000000020D9
:101E6000014B18687047C046C402002070B50400DA
:101E7000FFF7F6FF0500631C02D0044B1B78E41843
:101E8000FFF7EEFF401BA042FAD370BD0000002018
:101E9000026893699B0701D50023936203689A69DE
:101EA000D20703D49A6901210A439A61704730B579
:101EB000CB0709D54123C35C28221340282B01D02E
:101EC000F22302E01A3300E000238A0709D54424F4
:101ED0001C434122825C28252A40282A0FD0F42264
:101EE00013430AB2002A0CDB10290DD020290ED092
:101EF00040290FD001680A689A430A6030BD230068
:101F0000EFE7B8221343EFE790221343EEE72022D6
:101F10001343EDE740221343ECE7000010B5041E25
:101F200059D04123C35C002B43D041232422E254E7
:101F30002268136801218B43136063682268274974
:101F40000B4013612268936825490B409360E36856
:101F5000012B34D0A168226884231B020B439360B9
:101F6000E368022B32D0226851681E4B0B4353604A
:101F70002268D3681A490B40D3602369626913430E
:101F8000A269120221681343CB60E369216A2268C7
:101F90000B4313602268136801210B431360002375
:101FA000636441221F31A15423630132A3540020F2
:101FB00010BD40330022C254FEF778FDB5E7A1689A
:101FC000226880231B020B439360C9E723688022A9
:101FD00012015A60C7E70120EAE7C046FFFFFFF0A1
:101FE000FF7FFFFF0080000210B5036899691A683F
:101FF000436B002B00D0984710BD7047704700001E
:1020000010B5040003681A6842210020605451048E
:102010000CD51A6819490A401A604123E35C292B40
:102020000BD04123E35C2A2B17D010BD1204F4D54A
:102030001A6813490A401A60EFE718332822E2545D
:10204000203B236301212000FFF731FF40230022C2
:10205000E2542000FFF7D1FFE7E717332822E254CC
:102060001F3B236302212000FFF721FF40230022B2
:10207000E2542000FFF7C2FFD7E7C046FFBFFFFFD3
:10208000FF7FFFFF7047F8B504004123C35C28229F
:102090001340282B06D003680822DA61402300226F
:1020A000C254F8BD006885692D0C273B1D40866928
:1020B000360CFE210E4083689B059B0DC7680F40C0
:1020C000E268022A24D1DA097240F839114211D1AA
:1020D000A26C0132A264A26C022AE2D10022A264A4
:1020E0000231C161383162541A0029002000FFF723
:1020F000C9FFD6E7802109022000FFF7D8FE402360
:102100000022E2543A0029002000FFF7BBFFC8E795
:10211000802109022000FFF7CAFE40230022E2547A
:10212000320029002000FFF7ADFFBAE7704700003A
:1021300010B50400164BC362002303634122202024
:10214000A0540132A3546363490713D523685A6A24
:10215000636A1A70636A01336362238D002B09D0AE
:10216000013B2385638D013B9BB26385636C042235
:102170001343636407492000FFF799FE2368102288
:10218000DA6140230022E2542000FFF7CFFF10BDA8
:102190000000FFFF038000007047704710B5412327
:1021A000C35C602B06D00023036340228354FFF7F7
:1021B000F3FF10BD1F3B2022C254002303632032D3
:1021C0008354FFF7EAFFF4E710B504004123C35C32
:1021D0000022422022544348E0626285626C0A4336
:1021E0006264283BDBB2022B1BD803212000FFF7DF
:1021F0005EFE41232822E2543B4B6363236BA26BB8
:10220000002A03D0112B2DD0212B2BD0E26B002ADA
:1022100003D0122B46D0222B44D02000FFF7BEFF64
:1022200010BD32492000FFF742FE2000FFF730FECC
:102230004123E35C602B12D020234122A354226867
:1022400091690B420BD09369DB0605D51023D3614E
:10225000636C04221343636423682022DA61002341
:102260006363CBE7226813685B0403D513682049D6
:102270000B401360A06B00F00CFC01280ED0A36B88
:102280001C4A5A6340230022E254A06B00F087FBF3
:102290000028C5D0A06B436B9847C1E72000FFF72B
:1022A0007DFFBDE723681A68120403D51A68124936
:1022B0000A401A60E06B00F0ECFB01280ED0E36BE3
:1022C0000C4A5A6340230022E254E06B00F067FBA3
:1022D0000028A5D0E06B436B9847A1E72000FFF7EB
:1022E0005DFF9DE70000FFFF6524000803800000FC
:1022F000FFBFFFFF0F260008FF7FFFFF70B5040040
:102300000D00026816684123C35CD9B22020D06159
:10231000212B0CD029290AD0222901D02A290CD11D
:102320004A492000FFF7C3FD2223236305E0484903
:102330002000FFF7BCFD212323632268516880231E
:102340001B020B4353602268536842490B405360A1
:102350002000FFF79DFD730441D5226813683E49B4
:102360000B401360A36B002B03D01B685B689BB210
:1023700063856B0711D504239D4323685A6A636AFA
:102380001A70636A01336362238D002B05D0013B11
:102390002385638D013B9BB26385638D9BB2002BCC
:1023A00003D0636C04221343636400234222A354CA
:1023B0006363636C002B21D1E26A284B9A422AD1D5
:1023C0004123E35C222B36D041232022E254002318
:1023D00023632032A3542000FFF70FFE2AE03604C7
:1023E000C7D5226813681E490B401360E36B002BAE
:1023F000BFD01B685B689BB26385BAE7616C200045
:10240000FFF7E2FE4123E35C282B13D129002000D3
:10241000FFF78EFE0EE02000FFF7F2FD0F4BE362A8
:1024200041232022E254002323632032A3542000BE
:10243000FFF77CFE70BD1F332022E254002323638C
:102440002032A3542000FFF7D9FDF3E702800000FB
:102450000180000000E800FEFFBFFFFF0000FFFF5B
:10246000FF7FFFFFF8B504000D001600C76A402388
:10247000C35C012B00D196E00123402283544A091A
:10248000134201D0B30617D4EB0640D5F3063ED570
:10249000638D9BB2002B28D14133E35C282B0ED0F7
:1024A0004123E35C292B13D023681022DA614023F7
:1024B0000022E2540020F8BDFFF720FFE4E780236C
:1024C0009B049F42ECD129002000FFF731FEEEE78C
:1024D000364B9F42E8D023681022DA612000FFF7D4
:1024E000D7FC2000FFF78CFDE1E723681022DA61BA
:1024F000636C0C3A13436364002F03D080235B04A6
:102500009F42D4D1616C2000FFF75EFECFE76B07DE
:102510001ED573071CD5638D9BB2002B0DD023688D
:102520005A6A636A1A70636A01336362238D013BDE
:102530002385638D013B9BB26385638D9BB2002B2A
:10254000B5D11A4B9F42B2D02000FFF759FDAEE73C
:102550002B0701D5330716D4AD07A8D5B607A6D5E6
:10256000638D9BB2002B13D0626A236812789A6243
:10257000636A01336362638D013B9BB26385238D84
:10258000013B238593E729002000FFF77CFD8EE7C0
:1025900080235B049F4202D0002F00D087E72000F9
:1025A000FFF72EFD83E7022085E7C0460000FFFF0E
:1025B00070B5026893691168DC0508D50C0606D56C
:1025C000446C01252C43446480246400D4615A0582
:1025D00009D50A0607D5426C0824224342640268E2
:1025E0008024E400D4619B0509D5090607D5436C16
:1025F0000222134343640368FF32FF32DA61416C05
:102600000B230B4200D170BDFFF7DEFDFBE710B5D9
:10261000406A836B002B01D000225A63C36B002BEE
:1026200001D000225A63FFF7B9FD10BDF0B5412378
:10263000C35C202B20D12033C35C012B1ED040244F
:1026400001220255412524234355066833689343EC
:102650003360066833680A4F3B403360066833686E
:102660000B43336001680B6813430B602023435511
:10267000002303550020F0BD0220FCE70220FAE70A
:10268000FFEFFFFFF0B54123C35C202B1ED12033A9
:10269000C35C012B1CD04024012202554125242378
:1026A0004355066833689343336006683368094FBF
:1026B0003B4009021943316001680B6813430B600A
:1026C00020234355002303550020F0BD0220FCE7E2
:1026D0000220FAE7FFF0FFFFF0B583B0002356E0D9
:1026E00086685F000324BC40A643CC68BC403443EA
:1026F0008460446894434E683609012232409A400F
:102700002243426053E0DE080836B60037580532EF
:102710001A4092000F249440A7430C699440220071
:102720003A43325056E0032600E00026A64034002B
:102730003C4302329200444E9451444A9768EA4323
:102740003E00AE434C68E40201D53E002E433F4CB0
:10275000A660E7683E0016404C68A40201D53E0022
:102760002E433A4CE66067683E0016404C68A4036E
:1027700001D53E002E43354C6660266832404C68D9
:10278000E40301D52A003243304C226001330C6847
:102790002200DA4056D001229A402500154014420A
:1027A000F4D04E6803243440013C012C98D94C6885
:1027B00003222240032A08D0C4685E000322B240EC
:1027C00094438A68B2402243C2604C68032222408C
:1027D000022A98D004685E0003221700B740BC4369
:1027E0004F683A40B240224302604C68C0229202D5
:1027F0001442CBD0164CA66901221643A661A469E7
:1028000022400192019A9A08941CA4000E4EA759E6
:1028100003241C40A4000F26A640B7439026F605CB
:10282000B04282D00B4EB04208D00B4EB04207D01F
:102830000A4EB04200D176E7052677E7012675E714
:10284000022673E703B0F0BD000001400004014020
:10285000001002400004004800080048000C004836
:1028600003690B4201D0012070470020FCE7002AD9
:1028700001D0816170478162FCE7426913000B401F
:102880001B0491430B438361704770B5066CC56BA5
:102890000124B4406C60046863604368102B04D06A
:1028A000036899600368DA6070BD03689A60036822
:1028B000D960F9E710B504000068054B9C466044F8
:1028C0001421FDF75BFC80002064024BE36310BD24
:1028D000F8FFFDBF0000024070B5041E20D0212586
:1028E0000223435501680A680E4B1A40436880680A
:1028F0000343E06803432069034360690343A0691D
:102900000343E069034313430B602000FFF7D2FF4A
:102910000023A363012262551F32A354002070BD1F
:102920000120FCE70FC0FFFF70B504002020205CF1
:10293000012832D02020012525540130205C0128B7
:1029400004D020230022E254022070BD2030013543
:1029500025540020A063256828680126B04328601C
:102960002000FFF792FFE36A002B0BD02268136868
:102970000E210B4313602268136801210B4313607F
:102980000020E2E7226813680A210B4313602268E3
:10299000136806398B431360EDE70220D5E710B5C5
:1029A0002123C35C022B03D004238363012010BDC9
:1029B000026813680E218B43136001680A680123C3
:1029C0009A430A60016CC26B1C008C405460212247
:1029D00083541F330022C254436B002B02D098470C
:1029E0000020E4E70020E2E770B5C36B1A680468D2
:1029F0002568016C04238B401A4212D06B0710D556
:102A000023689B0603D42368042293432360016C4C
:102A1000C26B04238B405360C36A002B00D09847DD
:102A200070BD02238B401A4218D0AB0716D523681D
:102A30009B0606D423680A22934323602123093A84
:102A4000C254016CC26B02238B40536020230022CE
:102A5000C254836A002BE3D09847E1E708238B40F8
:102A60001A42DDD02D07DBD523680E229343236065
:102A7000016CC26B01231C008C40546083632122D3
:102A800083541F330022C254036B002BC8D09847D5
:102A9000C6E72123C05CC0B27047000070B50028B3
:102AA00011DB8308134DC0339B005C590322104097
:102AB000C000FC3216008640B44389010A408240BF
:102AC00022435A5170BD0F230340083B9B08063335
:102AD0009B00094A944663445C6803221040C0008E
:102AE000FC3215008540AC4389010A4082402243F4
:102AF0005A60E7E700E100E000ED00E001388023E4
:102B00005B0498420FD2094A50600948036A1B02CD
:102B10001B0AC02109060B4303620023936007339D
:102B20001360002070470120FCE7C04610E000E081
:102B300000ED00E010B5FFF7B1FF10BD002805DB88
:102B40001F22024001239340014A13607047C04690
:102B500000E100E010B5FFF7D1FF10BD70470000A5
:102B600030B583B004000023019303689968032201
:102B70000A40012A14D09968224A114218D19A6851
:102B800001210A439A60204B18682049FDF7F6FAA4
:102B90000190019B002B15D0019B013B0193F8E7AD
:102BA0001A68D2072BD4DA681204E4D5002024E096
:102BB000A36B10221343A363E36B0F3A1343E36346
:102BC00001201AE0FFF74CF9050023681B68DB07BA
:102BD00012D4FFF745F9401B0228F6D923681B6879
:102BE000DB07F2D4A36B10221343A363E36B0F3A0A
:102BF0001343E363012000E0002003B030BD002058
:102C0000FBE7C046170000800800002040420F008C
:102C100070B5041E00D1B4E0836B002B00D180E0BE
:102C2000A36BDB0600D5A6E023689A6804210800A0
:102C30001040114200D09EE0A26B53490A40063179
:102C4000FF310A43A263996803220A40012A6ED029
:102C5000DA6818218A43A1680A43DA602268136996
:102C60009B009B0861680B4313612268D368474946
:102C70000B40D360237E9B03627ED2031343A17E6D
:102C80004A031343A26A012A58D0802252011343F7
:102C9000E26813432269022A52D003432422A25C31
:102CA00052001343E27E012A4CD0E269C221FF3177
:102CB0008A4202D0216A0A4313432168CA681A4330
:102CC000CA60E26A802149058A420DD0012A0BD0F0
:102CD000022A09D0032A07D0042A05D0052A03D0E6
:102CE000062A01D0072A0AD12068416907229143A8
:102CF000416120684169E56A2A400A4342612268CD
:102D0000D26823490A409A422BD0A36B12229343E4
:102D1000023A1343A363E36B0F3A1343E3630120C7
:102D20002EE0C36334228354FDF76AFE78E71A6805
:102D3000D2079AD4DA68120497D489E70200A6E78A
:102D40000420AAE7002903D1802252021343ACE7F2
:102D5000A26B20210A43A263E26B1F390A43E2639C
:102D6000A3E70023E363A36B03229343023A1343D5
:102D7000A363002004E0A36B10221343A36301208C
:102D800070BD0120FCE7C046FDFEFFFF1902FEFFFB
:102D9000E7FF3F83F8B504000D00160003689B6849
:102DA0005B073ED43423C35C012B3CD03423012287
:102DB000C254437E012B04D0FFF7D2FE071E2ED152
:102DC00000E00027A26B194B1A4080235B001343DD
:102DD000A3630023E3633422A354236B144A9A624F
:102DE000236B144ADA62236B134A1A6323681C228A
:102DF0001A602268536810210B4353602268D3681D
:102E00000F390B43D36021684031206B33002A0017
:102E1000FFF78AFD2268936804210B439360380012
:102E2000F8BD0227FBE70227F9E7C046FEF0FFFFE7
:102E30003D2E0008AF2E0008BD2E000810B5436AD5
:102E40009A6B502111422BD1996B802292000A4338
:102E50009A631A68D068C0210901084213D1997E8B
:102E6000002910D1116809070DD5916849070ED4C2
:102E700051680C20814351609A6B0B490A40043120
:102E8000FF310A439A631800FDF740FD10BD9A6BAD
:102E900020210A439A63DA6B1F390A43DA63F2E7A7
:102EA0001B6B1B6B9847F1E7FEFEFFFF704710B5E9
:102EB000406AFFF7FBFF10BD7047704710B5406ACE
:102EC000836B402213438363C36B3C3A1343C36356
:102ED000FFF7F3FF10BD000070B5040003681D6824
:102EE0005E686A0701D5720703D42A0727D532071F
:102EF00025D5A26BD20604D4A16B802292000A438E
:102F0000A263D968C0221201114212D1A27E002A06
:102F10000FD12A070DD59A6852072DD45A680C2173
:102F20008A435A60A36B1F4A13400432FF32134393
:102F3000A3632000FDF7EAFC23680C221A602B062D
:102F400001D5330621D4ED0615D5F60613D5A36AAF
:102F5000012B03D02368DB68DB0709D5E36B022272
:102F60001343E36323680E321A602000FFF7A5FFC6
:102F7000236810221A6070BDA36B20221343A36341
:102F8000E36B1F3A1343E363D3E7A26B80235B0237
:102F90001343A3632000FFF78FFF236880221A608A
:102FA000D1E7C046FEFEFFFF30B583B0040000232A
:102FB00001933433C35C012B00D178E03423012228
:102FC000C254026893685B0767D44868394B9842DB
:102FD0004AD0936A0D680120A84003439362E36AD4
:102FE000072B19D8002B10D1886822685569072350
:102FF0002B40984209D050690723984350612068BC
:1030000042698D682B40134343610B681A00103AE4
:10301000012A06D9002045E0802252059342F4D0CF
:10302000E2E7254A1268102B09D08023DB03134303
:10303000214A13600B68102B04D0002032E080235B
:103040001B04F4E71D4B18681D49FDF797F8830032
:103050001B185B00019302E0019B013B0193019B64
:10306000002BF9D100201DE0936A0D680120A840D3
:10307000834393620B681A00103A012A01D9002099
:1030800010E00D4A1268102B05D00E4B13400A4A6F
:103090001360002006E00C4BF8E7836B20221343FB
:1030A0008363012034230022E25403B030BD0220A8
:1030B000FBE7C0460110000008270140080000207F
:1030C00040420F00FFFFBFFFFFFF7FFF0D48854617
:1030D000FFF744FD0C480D490D4A002302E0D45887
:1030E000C4500433C4188C42F9D30A4A0A4C002352
:1030F00001E013600432A242FBD300F03BF8FDF77D
:10310000EDFAFEE700200020000000205C00002017
:103110008C3B00085C00002014040020FEE7000047
:103120000EB410B500240C499DB01FAB0290069060
:103130000791049109480A4904CB0591006802A946
:1031400001931B9400F098F9029B1C701DB010BCF9
:1031500008BC03B01847C046FFFFFF7F0C000020EB
:103160000802FFFF03008218934200D170471970D4
:103170000133F9E770B500260C4C0D4D641BA4100B
:10318000A64209D1002600F06FFC0A4C0A4D641BD0
:10319000A410A64205D170BDB300EB589847013684
:1031A000EEE7B300EB5898470136F2E7843B00089E
:1031B000843B0008883B0008843B00087047704748
:1031C00070B505000C1E10D0043C2368002B00DAFB
:1031D000E418280000F0E0F81D4A1368002B05D120
:1031E00063601460280000F0DFF870BDA34208D9C6
:1031F000206821188B42F3D119685B680918216097
:10320000EEE71A005B68002B01D0A342F9D91168E0
:103210005018A0420BD12068091850181160834241
:10322000E0D118685B68411811605360DAE7A0428A
:1032300002D90C232B60D5E7206821188B4203D1DB
:1032400019685B680918216063605460CAE7C0466A
:103250000C04002070B50F4E0D00316804000029E9
:1032600002D100F095FB30602900200000F090FBB7
:10327000431C03D101256D42280070BD0323C51CEA
:103280009D43A842F8D0291A200000F081FB0130AC
:10329000F2D1EFE708040020F7B50322CB1C9343DB
:1032A000083305001F000C2B34D20C27B94233D849
:1032B000280000F071F8374E33681C00002C2FD125
:1032C00039002800FFF7C6FF0400431C5FD13468B3
:1032D0000094009B002B4AD1002C52D02368280078
:1032E000E3180099019300F053FB019B834248D1FE
:1032F00023682800FF1A3900FFF7ACFF013040D0E7
:103300002368DB19236033685A68002A33D1009B95
:10331000336019E0002BC9DA0C232B600020FEBDBE
:103320002168C91B20D40B290AD9E2192760A342BE
:1033300004D1326063681160536005E05A60F9E7B8
:103340006268A3420ED13260280000F02DF8200000
:1033500007220B30231D9043C21A9842DFD01B1A5C
:10336000A350DCE75A60EFE723006468A6E7009CFF
:1033700063680093ADE71A005B68A342FBD10023AA
:10338000DAE70C2328002B6000F00EF8C6E7076090
:10339000DAE7C0460C04002010B50248FFF70EFF24
:1033A00010BDC0460404002010B50248FFF707FF17
:1033B00010BDC04604040020F0B58E6885B01F0023
:1033C0000C000B6802900392BE4230D80C21625E62
:1033D0009021C9000A4228D0032021695B1A019379
:1033E000636943430198DD0FED187B1C1B186D10BA
:1033F000AB4200D91D00520528D529000298FFF7DD
:103400004BFF061E2CD0019A216900F0DEFAA2893A
:10341000184B1A4080231343A381019B2661F618A1
:1034200026603E006561ED1AA560BE4200D93E00EF
:1034300032000399206800F099FA0020A3689B1BD2
:10344000A36023689B19236005B0F0BD2A00029891
:1034500000F0C4FA061EE0D121690298FFF7B0FE21
:103460000C230120029A40421360A2893433134393
:10347000A381E9E77FFBFFFFF0B5A1B003901D003A
:103480008B890F0016001B0611D50B69002B0ED17E
:103490004021FFF701FF38603861002805D10C2377
:1034A000039A136001204042CFE040237B61002358
:1034B00008AC6361203363761033A376079535003B
:1034C0002B78002B01D0252B48D1AB1B0593B5429F
:1034D0000BD0320039000398FFF76EFF013000D1A6
:1034E000AEE06369059A9B1863612B78002B00D1CD
:1034F000A6E0012200235242626004A9543252180D
:103500006E1C2360E360A3601370A365544B052217
:1035100018003178059300F04DFA751C00281FD172
:103520002268D30604D5532304A95B1820211970FF
:10353000130704D5532304A95B182B211970337882
:103540002A2B16D0350000210A20E3682A786E1C49
:10355000303A092A50D9002911D117E00135AFE7D7
:10356000059B2268C01A0123834013432E00236069
:10357000CCE7079B191D1B680791002B01DB0B9300
:1035800004E05B42E3600223134323602B782E2B7D
:103590000CD16B782A2B34D1079B02351A1D1B687E
:1035A0000792002B01DA01235B4209932D4E03227F
:1035B0003000297800F0FEF9002806D04023801B57
:1035C0008340226801351343236029780622264868
:1035D0006E1C217600F0EEF9002838D0234B002B2A
:1035E00022D10722079B073393430833079363696C
:1035F000049A9B18636162E74343350001219B18DD
:10360000A4E700230A201900013563602A786E1CA4
:10361000303A092A03D9002BC8D00991C6E74143A3
:10362000350001238918F1E707AA009221003A002A
:103630000F4B039800E000BF0490049B0133D6D1E8
:10364000BB890D985B0600D52CE721B0F0BD07AA19
:10365000009221003A00064B039800F07BF8EBE75C
:10366000503B0008563B00085A3B00080000000091
:10367000B9330008F7B5160001938A680B690C008E
:103680000090934200DA1300220033604332127834
:10369000002A01D00133336023689B0602D53368CA
:1036A000023333602268062315001D401A4227D0DA
:1036B000230043331B785A1E93412268920630D46C
:1036C000220001990098089D4332A847013025D077
:1036D0000622236800251340042B05D13368E568D2
:1036E000ED1AEB43DB171D40A3682269934201DD0D
:1036F0009B1AED180026B54220D1002010E00135BC
:10370000E36832689B1AAB42D2DD220001230199A3
:103710000098089F1932B8470130F0D1012040428B
:10372000FEBD3020E1184331087021005A1C45319C
:103730000978A218433202331170C1E72200012335
:1037400001990098089F1A32B8470130E6D0013637
:10375000D1E70000F0B58BB006920A004332079320
:10376000059003920A7E0C00109B782A09D8622AE1
:103770000BD8002A00D1BAE07A490491582A00D126
:103780008EE0250042352A7022E0100063381528AB
:10379000F7D8FCF7E9FC16001F00F6FFF6FFF6FF6E
:1037A000F6FF1F00F6FFF6FFF6FFF6FF9F0036005C
:1037B0007E00F6FFF6FFB000F6FF3600F6FFF6FFDC
:1037C000820025001A684235111D196013682B709C
:1037D00001239EE018680968021D0D060BD50668D6
:1037E0001A60002E03DA2D23039A764213705D4B84
:1037F0000A27049318E006681A604906F1D536B224
:10380000EFE70868196840C9050602D4400600D5EC
:10381000B6B21960534B0A2704936F2A00D1023FB6
:103820002300002243331A706368A360002B06DB79
:1038300004212268039D8A43226033430CD0039DF8
:1038400030003900FCF720FD049B013D5B5C2B70D0
:10385000330006009F42F3D9082F09D12368DB0704
:1038600006D5626823699A4202DC3023013D2B7041
:10387000039B5B1B2361079B210000930598069B1C
:1038800009AAFFF7F7FE013048D1012040420BB0F2
:10389000F0BD202209680A4322607822324904914F
:1038A000210045310A701968226840C9100602D407
:1038B000500600D5B6B21960D30702D520231343B2
:1038C0002360002E01D01027AAE72022236893430B
:1038D0002360F8E71A680D68101D496918601368BD
:1038E0002E0601D5196002E06D06FBD51980002374
:1038F000039D2361BFE71A68111D19601568002137
:103900002800626800F056F8002801D0401B606073
:10391000636823610023039A1370ACE72A002369CC
:1039200006990598079DA8470130AED023689B07EC
:1039300015D4099BE0689842A9DA1800A7E722008D
:10394000012306990598079E1932B04701309CD093
:103950000135E368099A9B1AAB42F0DCE9E70025E0
:10396000F7E7C046613B0008723B000810B588428B
:1039700002D98B18984208D300239A4207D0CC5C16
:10398000C4540133F9E78B5C8354013AFBD210BD78
:10399000002370B5064D040008002B6000F056F8B7
:1039A000431C03D12B68002B00D0236070BDC046A0
:1039B00000040020C9B28218904201D10020704753
:1039C00003788B42FBD00130F6E7002310B59A4212
:1039D00000D110BDCC5CC4540133F8E7F7B5060044
:1039E0000C001500002905D11100FFF755FC04005B
:1039F0002000FEBD002A03D1FFF7E2FB2C00F7E711
:103A000000F01CF80700854202D84308AB42EFD310
:103A100029003000FFF740FC0190002801D1019CF3
:103A2000E6E72A00BD4200D93A0021000198FFF7DD
:103A3000CCFF21003000FFF7C3FBF0E70B1F1B6832
:103A4000181F002B01DA0B58C0187047044A0300F6
:103A50001068002802D0C318136070470148FAE7C5
:103A60001004002018040020F8B5C046F8BC08BCBB
:103A70009E467047F8B5C046F8BC08BC9E467047E5
:103A800053773B204D6E3A205B25645D2C205468B3
:103A90003A205B25645D2C2053483A205B25645D09
:103AA0002C20534C3A205B25645D2C204C31503A3D
:103AB000205B25645D2C204C314E3A205B25645DF3
:103AC0000A0D0000547572626F2073706565642181
:103AD0000A0D0000547572746C652073706565641E
:103AE0002E0A0D004E6F726D616C207370656564F7
:103AF0000A0D00004144433B205468726F74746C9B
:103B0000653A205B25645D2C20526567656E3A201E
:103B10005B25645D0A0D0000010203040506070829
:103B2000090A0B0C0D0E0F10020304050607080905
:103B30000A0B0C0D0E0F1010000000000102030410
:103B4000000000000000000001020304060708094D
:103B5000232D302B2000686C4C0065666745464776
:103B600000303132333435363738394142434445F9
:103B70004600303132333435363738396162636468
:043B80006566000076
:043B840035010008FF
:043B88000901000827
:103B8C00010000000400000000127A001000002068
:103B9C0000000000C8020020300300209803002021
:103BAC000000000000000000000000000000000009
:103BBC0000000000000000000000000000000000F9
:103BCC0000000000000000000000000000000000E9
:0C3BDC00000000000000000000000000DD
:04000005080030CDF2
:00000001FF
